:020000040800F2
:10000000D80C0020255C0008595A00085B5A0008EB
:100010005D5A00085F5A0008615A0008000000009D
:10002000000000000000000000000000635A00080B
:10003000655A000800000000675A0008695A000865
:10004000495C00084D5C0008515C0008555C0008E4
:10005000595C00085D5C0008615C0008655C000894
:10006000695C00086D5C0008715C0008755C000844
:10007000795C00087D5C0008815C0008855C0008F4
:10008000895C00088D5C0008915C0008955C0008A4
:10009000995C00089D5C0008A15C00086D5A00088E
:1000A000A55C0008A95C0008AD5C00088D5A00083A
:1000B000B15C0008B55C0008B95C0008BD5C0008D4
:1000C000C15C0008C55C0008C95C0008CD5C000884
:1000D000D15C0008D55C0008D95C0008DD5C000834
:1000E000995A0008E15C0008E55C0008E95C00083A
:1000F000ED5C0008F15C0008F55C0008F95C0008A4
:10010000FD5C0008015D0008055D0008095D000850
:100110000D5D0008115D0008155D0008195D0008FF
:100120001D5D0008215D0008255D0008295D0008AF
:100130002D5D0008315D0008355D0008395D00085F
:100140003D5D0008415D0008455D0008495D00080F
:100150004D5D0008515D0008555D0008595D0008BF
:100160005D5D0008615D0008655D0008695D00086F
:100170006D5D0008715D00080000000000000000D7
:10018000755D0008795D00082DE9F14FB2B0994620
:10019000924600230691CDE900333C9A0F930DF16E
:1001A0004A0114914A7011E0329E57462C4617F8C6
:1001B000011B0698B0470028069000F026810F9892
:1001C000401C641E0F90F2D13296AA449AF80000A7
:1001D000252808D10021002209910A920B910C9246
:1001E0000D910E920FE06A464FF0FF31504601F03C
:1001F0007FF8050002D10F9800F066BED4D5012526
:10020000E3E741F001011AF8010F2028F9D0232873
:100210000CD02B2804D02D2805D0302809D00BE095
:1002200041F00201EFE741F00401ECE741F0080181
:10023000E9E741F01001E6E72A280FD1D9F80020BC
:1002400052F8040BC9F800200028119003D5404251
:10025000119041F004010AF1010A14E01192DFF853
:10026000EC3B0AE01198984205DA00EB800402EBBF
:100270004402303A11920AF1010A9AF80020A2F1E0
:1002800030000A28EED39AF800002E2803D04FF051
:10029000FF32109229E01AF8010F2A2809D1D9F863
:1002A000000050F8042BC9F8000010920AF1010A6E
:1002B0001BE02D280CBF0AF1010A00200022109239
:1002C000DFF8882B0BE040B9109B934205DA03EB73
:1002D000830504EB4504303C10940AF1010A9AF8B6
:1002E0000040A4F130030A2BEDD3ADF848100FF60F
:1002F00060309AF8001001F005F808B11AF8010B07
:100300008DF84A009DF84A00682805D19AF8000047
:1003100068280CD1622106E06C2804BF9AF800001E
:100320006C2804D171218DF84A100AF1010A1FA826
:1003300008901AF801BBBBF125012DD01C3900F043
:100340006181091F022940F25D810E392AD0491FBF
:1003500000F0B384093900F05581891E00F0498509
:10036000491E00F0F584491E022940F24B81091F05
:1003700000F0EE84491F00F0BA80491E00F09D8411
:10038000491E65D0C91E21D0891E00F09684C91E61
:1003900000F0938400F04CBD25238DF87C300121C2
:1003A00009912AE06C208DF84A00D9F8000050F835
:1003B000042BC9F80000002A43D11499487800287A
:1003C0003DD04FF0FF340FF6902012E09DF84A0028
:1003D0006C28EAD0D9F8000050F8044BC9F80000A6
:1003E0000794D4B91499487898B14FF0FF340FF6B8
:1003F000842000F0A1FF201A07D132981FAA04A977
:1004000000F065FD00287FF5E1AE4FF0FF3000F011
:100410005BBD0FF67C200790EFE7109D002D04D503
:10042000204600F0A9FF044607E02A46204600F0D7
:10043000BFFF002814BF041B2C460A94DDE70FF60B
:100440005422329804A900F0C8FD0028D5D5DCE775
:10045000D9F8001051F8040BC9F8001020F000047E
:10046000002121F0FF351FABCDE904450793DDE9FD
:10047000042308993C2413B90AB9109898B102F0E2
:100480000F053035641EEEB23A2EA8BF273512098B
:1004900042EA03721B090D5508BF002A03D00798D2
:1004A0000D19A842EBD308190790C4F13C0210982B
:1004B0000A92824209DABDF84810821A4FF6EF70AC
:1004C00001400C92ADF8481097E7002895D59DF8AB
:1004D000480000F0140010288FD1119B09990C9846
:1004E0005B1A1B1A9A1A002A87DD0C9285E7149969
:1004F000487820B14FF0FF340FF69C1079E79DF853
:100500004A00622862D0682819D06A2840D06C2836
:1005100006D071284DD074282DD07A281ED064E0E2
:10052000D9F8001051F8040BC9F8001020B94FF0A9
:10053000FF340FF67C105CE70F9901605DE7D9F896
:10054000001051F8040BC9F8001020B94FF0FF3427
:100550000FF65C104DE70F9901804EE7D9F80010B7
:1005600051F8040BC9F800100028E5D14FF0FF3412
:100570000FF63C103DE7D9F8001051F8040BC9F80C
:1005800000100028D8D14FF0FF340FF6241030E7C8
:10059000D9F8001051F8040BC9F8001020B94FF039
:1005A000FF340FF60C1024E70F9AD317C0E900238D
:1005B00023E7D9F8001051F8040BC9F800100028FF
:1005C000F2D14FF0FF340FF6E80012E7D9F800102F
:1005D00051F8040BC9F8001020B94FF0FF340FF6A2
:1005E000D00006E70F99017007E7D9F8001051F81D
:1005F000040BC9F8001000289ED14FF0FF340FF60D
:10060000B000F6E6D9F80020D21D22F00702C9F8A2
:100610000020D2E900010832C9F80020CDE9040128
:10062000C80F02D009982D210AE0BDF848008107C3
:1006300002D509982B2103E0C00705D50998202190
:100640001FAA1154401C0990DDE9042309991FA831
:10065000CDE92E2308444BF020016129079015AC09
:100660000BD01099002902D50621109105E001BF99
:100670004BF02001672901221092DDE90423590083
:100680004915491C10D11A030ED0ABF161050321A5
:100690001A2D0A9102D20FF6A43101E00FF6A03113
:1006A000032200F0B1FEA8E659004915491C0AD101
:1006B0001A0308D1ABF1610503211A2D0A9116D353
:1006C0000FF68431ECE7DDE90401CDE93001DDE925
:1006D000302323F00047B7F5801F22F000060DD22B
:1006E0000022002F08BF002E029203D116E00FF661
:1006F0005431D5E702AA00F093FE0FE0DFF8EC0AD0
:10070000DFF8EC1A00EB17500290DDE930234FF0D0
:10071000FF301940DFF8DC7A10403943CDE904019D
:100720004BF0200061280DD1079830210170821C08
:10073000BBF1610F07920CBF7821582141700998D5
:10074000801C0990DDE9040120F0000231F0004333
:1007500008BF002A02D10026002571E14BF02008D5
:10076000B8F1610F40F0BE801098002847BF2121EA
:100770000391401C0390039FDDE92E017F1C0022A2
:100780000023DDE9044500F083FE02998DF8542032
:1007900038BF85F00045091F002F02910DF1550665
:1007A0005DDDDFF8541ACDE9302140F2FF732E935E
:1007B000204629460022002300F082FE4FD2480046
:1007C000400D00F11C0215D0002A13DD2E9B9A4229
:1007D0000ADBDDE9300121F0004205F00040024370
:1007E000DDE93001114611E06FF31E5141EA02517B
:1007F00020460BE024F0000035F0004108BF00283F
:100800000FBF29461C22294600F072FE04460D4601
:1008100000F00CFFFF1F002F804609DD00F024FFD1
:1008200002460B462046294600F030FF04460D469E
:10083000F01D0721B8F1000F0CDD491E5EBF08F066
:100840000F0200F8012D4FEA2818F3D502E000222C
:1008500000F8012D491EFAD5C61D002FA8DC0DF1A8
:100860005500361A03988642D8BF304600280DF14D
:10087000550430D4B04206DA0DF155010A5C082A5D
:10088000A8BF0F2100DA0021024615AB134400E097
:10089000401E13F80159521E8D42F9D00F2904D180
:1008A0000DF155018B5C5B1C8B54002A04D5029919
:1008B000091D15AC401C0291411E0CD46218ABF10D
:1008C0003A0613783033DDB23A2DA8BFF318491E2B
:1008D00002F80139F5D51099002940F1AF80421E88
:1008E0001092ABE00299DFF8142947F29750414388
:1008F00091FBF2F2DDE92E45029225F00045D2F19E
:10090000070204DD2046294600F04CFC0BE0524271
:100910000020DFF8EC1800F045FC02460B462046AC
:10092000294600F025FF0446B8F1660F109806BF6F
:10093000029F0A3706273F18142FC8BF14273020FC
:100940008DF854000D460020DFF8B818CDE92E01CF
:100950000DF15506002F33DD2046294601F02CF815
:1009600001460A4606F1080304200A26B2FBF6F601
:1009700006EB860EA2EB4E02303203F8012C0A225F
:10098000B6FBF2F202EB820EA6EB4E063036401EAC
:1009900003F8026DE9D1083F002F03F10806D9DD05
:1009A000084601F01DF802460B462046294600F095
:1009B0006DFEDDE92E2301F021F804460D46CBE75C
:1009C0000DF15500361A0DF1550404E00298401E51
:1009D000761E0290641C20783028F7D0B8F1660F9C
:1009E00002D10299491C04E0B8F1650F0CBF012146
:1009F0000021109808188642B8BF701E00281DD428
:100A0000B04204DA215C3429C8BF392100DC30212E
:100A10000246631E9D1800E0401E15F80169521E33
:100A20008E42F9D0392902D1A15C491CA154002A77
:100A300004D50299491C1C46401C02910646029DA1
:100A400000F05AFC406A0778DDF8408030B2002898
:100A500002DC01260FF2F4744BF02000662808BF78
:100A60006D1C16D0672846D128B210F1040F48DB60
:100A7000404546DA9DF848006D1C010703D430B2AA
:100A80004045B8BF804628B2B8EB000848BF4FF0D9
:100A900000080FFA85FB07980A99BBF1000F00F3D5
:100AA000B2804A1C0A9230234354B8F1000F03DC91
:100AB0009DF84800010704D50A98411C0A9107993E
:100AC0000F5418EB0B0FB8BFC8F100052DB26842E8
:100AD0000D90A84432B29045B8BF4646079B0A988D
:100AE00036B20B9632462146184400F08DFCA8EB36
:100AF00006000E90CBE0BBF1610F17D14FF0700BE9
:100B000019E030B2404504DA9DF848100A0758BF92
:100B10008046B8F1010848BF4FF00008BBF1670FED
:100B200014BF4FF0450B4FF0650B04E0BBF1410FD4
:100B300008BF4FF0500B0A98411C0A91B8F1000F02
:100B4000079914F8012B0A5403DC9DF848000107AB
:100B50001AD50A98411C0A91B8F1000F07990F5451
:100B600012DD761E30B2804507980A9BB8BF464614
:100B700032B22146184400F047FC0A9936B2711887
:100B80000A91A8EB06000D9007980A9908442AB22A
:100B9000002A80F800B003D42B224270811C04E0AC
:100BA0002D2141701546811C6D4200202EAA0A2479
:100BB00009E02B4693FBF4F505EB8506A3EB460312
:100BC00002F8013B401C2DB2002DF2DC012806DCAE
:100BD0004BF02002652A04BF302201F8012B0028C7
:100BE0002EAA08D1302001F8010B06E0401E135C4C
:100BF000303301F8013B0028F8DC079A0A981044CA
:100C0000091A0B9143E0084431B22AB2914219DA31
:100C100032B2214600F0F8FB0A9936B27118ABEBFC
:100C20000606B8F1000F0A910D9603DC9DF8480006
:100C3000020704D5079847540B99491C0B91CDF82E
:100C4000388024E0214600F0DFFB0A98761B5844E8
:100C5000B8F1000F0A9003DC9DF848100A0703D58D
:100C6000411C0A9107990F5430B2804507980A9B9E
:100C7000B8BF464632B204EB0B01184400F0C4FB87
:100C80000A9836B230180A90A8EB06000D909DF82D
:100C9000480000F0140010287FF4AFAB099A0A99BD
:100CA0000D988A180B9982180E988A188218119834
:100CB0008242BFF6A2AB821A17E49DF84A0062286E
:100CC00008D068280ED06A2814D06C281FD071284C
:100CD00010D01CE0D9F8001051F8040BC9F800102E
:100CE000C0B21AE0D9F8001051F8040BC9F800108E
:100CF00080B212E0D9F80020D21D22F00702C9F814
:100D00000020D2E900010832C9F8002006E0D9F835
:100D1000001051F8040BC9F800100021CDE90401BE
:100D20009DF8480001075AD5DDE90423002B08BFD0
:100D3000002A54D04BF02000782850D109981FA9E0
:100D400030220A54401C431C099301F800B046E0CD
:100D50009DF84A00622808D068280ED06A2814D06E
:100D60006C281FD0712810D01CE0D9F8001051F861
:100D7000040BC9F8001040B21AE0D9F8001051F87D
:100D8000040BC9F8001000B212E0D9F80020D21DFF
:100D900022F00702C9F80020D2E900010832C9F8A0
:100DA000002006E0D9F8001051F8040BC9F8001033
:100DB000C117CDE90401002902D509982D210AE0C7
:100DC000BDF84800810702D509982B2103E0C00730
:100DD00005D5099820211FAA1154401C09901FA86D
:100DE00009990144079104A8594600F056F9FFF704
:100DF00004BB9DF84A006C280BD001210991D9F859
:100E0000000050F8041BC9F800008DF87C10FFF7B3
:100E1000F4BAD9F8000050F8041BC9F80000159185
:100E20004FF0FF3210920021169115AAFFF709BB6F
:100E300025210122BBF1000F8DF87C1009923FF4AF
:100E4000DCAA8DF87DB00221FFF7AABACBCCCC0C7E
:100E5000686A6C747A4C00007072696E74665F73B5
:100E60003A2062616420256C7320617267756D653C
:100E70006E7400007072696E74665F733A2062610E
:100E80006420257320617267756D656E74000000C3
:100E900000000000000000007072696E74665F73ED
:100EA0003A20256E20646973616C6C6F776564000D
:100EB0007072696E74663A2062616420256E2061EA
:100EC0007267756D656E740033B0BDE8F08F2DE903
:100ED000FC410F46064690467A6B7869396ABC6ACF
:100EE000121AB869521A796A121AF869521A121A41
:100EF00097F83800141B41070FD42020002C8DF8E0
:100F000000000ADD254601236A463946304600F0D6
:100F10007DF900285DD16D1EF5D17B6942463946C9
:100F2000304600F073F9002853D130208DF80000CE
:100F30003D6A002D09DD01236A463946304600F03E
:100F400065F9002845D16D1EF5D1BB69FA683946AF
:100F5000304600F05BF900283BD130208DF80000CE
:100F60007D6A002D08DD01236A463946304600F0CF
:100F70004DF970BB6D1EF6D1F868B969FB6942186E
:100F80003946304600F042F918BB30208DF8000099
:100F9000BD6A002D08DD01236A463946304600F05F
:100FA00035F9B0B96D1EF6D197F8380041070DD567
:100FB0002020002C8DF8000008DD01236A46394608
:100FC000304600F023F920B9641EF6D10020BDE8B8
:100FD000F6814FF0FF30BDE8F6812DE9F8470D4668
:100FE000A3B02F6B002F8246904648BF6FF000479A
:100FF00000F0D5FD696B401801AA0021C2E900117B
:10100000812828BF4FF0FF3044D289461EE0A74216
:1010100030DB6869201881280BD30021696303AA9B
:1010200029465046FFF753FF5FEA000922D400200B
:10103000686103AB6E6922466946981900F0E4F9CD
:10104000A6196E6158F8040BA0B13F1B002F11DDEB
:10105000D8F8001001AA684600F04CF90446002CAC
:1010600005D4D8F800000028D1D1641ECFD54FF0A8
:10107000FF390EE0B9F1000F504604D103AA29460A
:10108000FFF725FF8146B9F1000F02D1002068610A
:101090006863484624B0BDE8F0872DE9FC43074665
:1010A0006F293E6908BF082405D041F02000782848
:1010B00014BF0A2410243C25D7E90023642918BF53
:1010C00069299046994605D1002B03D5D8F100082F
:1010D00069EB4909B9F1000F08BFB8F1000F0CD155
:1010E000386B50B9082C39D197F83800010735D53D
:1010F00030203B2586F83B0030E08DF8001040465C
:1011000049462246E31700F04FFD3032D0B26D1E43
:101110003A28019504DB9DF80000A0F151018A18DE
:101120007255404649462246E31700F03DFD804691
:101130005FEA010908BFB8F1000F03D0F868711920
:101140008842DCD3082C09D197F83800010705D56F
:10115000705D302802D06D1E30207055C5F13C0204
:10116000BA617119F960386B824208DA821A3A6200
:101170004FF6EF70398F01403987BDE8F3830028BF
:101180000ED597F8380000F01400102808D17B6BBA
:101190007969386A5B1A1B1A9A1A002AC8BF3A6220
:1011A000BDE8F3832DE9D04306460F4614464FF0C1
:1011B0000008DFF8549012E0E00707D542464B469E
:1011C0003046394600F01AFC06460F46404649466E
:1011D00042464B4600F012FC641080468946002CC3
:1011E000EAD130463946BDE8D083000002FCFFFF5B
:1011F000FFFF0F800000E03F0000F07FA0860100AD
:101200000000F03F84D7974100002440F8B5054620
:101210000E4617461C4600205CB117F8011BB0684B
:10122000A847B06030B1F06A401CF0620020641E34
:10123000F3D1F2BD4FF0FF30F2BD00006E616E00E1
:101240004E414E00696E6600494E4600300030B493
:10125000002513E050F8042BD30744BFA9F1010384
:101260009A18091F042942F8045BFAD213468C0726
:1012700044BF15809B1CC90748BF1D7050F8041B54
:101280000029E7D130BC70471C48704770B45368E0
:10129000D41801E05B1C491E042B08DA00291FBF8B
:1012A000057804F8015B10F8016B002EF2D1536051
:1012B00070BC704738B514461D4661B1FFF7E6FFB4
:1012C00061686A6B204690476FF00102811A02D074
:1012D000491E01D001E003E005E00021616032BD5C
:1012E0006FF0010032BD4FF0FF3032BDDA6B1047B6
:1012F000024BDFE7014BF9E701487047D8000020B7
:10130000A0000020C9B202788A421AB11CBF10F8AE
:10131000012FF9E718BF00207047B1F5807F02D395
:101320004FF0FF3070470170012070470078401E79
:101330008041C043C00F704780B500B906A0054981
:101340000B681BB122220021984701E000F0AFFC9E
:10135000222002BDD4080020636F6E73747261692D
:101360006E742068616E646C65723A2062616420FC
:101370006D6573736167650000F10103810704D037
:1013800010F8011B820781B1FAD10268A2F1013184
:10139000914311F0803104BF50F8042FF6E709BAE9
:1013A000B1FA81F100EBD100401CC01A70472E0049
:1013B000C9B2830706D0521E22D310F8013B9942CE
:1013C000F7D11FE0083A13D302F1040241EA0121E8
:1013D00041EA014150F8043B121F21BF4B40A3F1E9
:1013E000013C2CEA030C1CF0803FF3D0C9B2001F73
:1013F000083210F8013B521E28BF91EA030FF8D8BB
:1014000018BF0120401E70474AB1000011F8013B8F
:10141000521E00F8013B1CBF11F8013BF8E7704772
:1014200010B5144600F002F8226010BDC1F30A5353
:1014300043B14A0012F5001F28D2A3F2FE32A1EBFD
:101440000251704750EA410C20D001F0004C31EAC3
:101450000C01B1FA81F204BFB0FA80F3D2180B3A52
:10146000B2F120032CBF00FA03F1914041EA0C01D4
:101470003EBFC2F1200C20FA0CF3194390405242B7
:1014800040F2FD33D21A01EB03517047002270473E
:101490004FF4001C1CEB410F94BF1CEB430F09E001
:1014A00041EA030C50EA4C0C52EA0C0C03D299426C
:1014B00008BF9042704714BF8B428242704743007E
:1014C0004FF4001C1CEB410F94BF1CEB430F09E0D1
:1014D00041EA030C50EA4C0C52EA0C0C03D28B424A
:1014E00008BF8242704714BF994290427047000083
:1014F000124254D440F2FF7C1CEA11530FD06345D2
:1015000031D09B1863453CBF01EB0251704701F09D
:10151000004141EA0C510020AFF30080704750EACF
:10152000410320D001F0004C91EA0C011CD0B1FA2B
:1015300081F30B3B9A420DD9D21A994051EA0C0122
:10154000C3F1200C20FA0CFC61449840531C40F27B
:10155000FF7CD7E7914041EA0C01C2F1200C20FA50
:101560000CF3194390407047B0FA80F31533202BE9
:10157000E0D3202AEED3203A203B9A4209D9D21A4E
:1015800000FA03F141EA0C010020531C40F2FF7CF9
:10159000B8E700FA02F141EA0C010020704752421C
:1015A00040F2FF7C1CEA11530DD06345DBD0B2EB57
:1015B000030C3CBFA1EB025170470CF1010221EA80
:1015C000035141F4801150EA410CCCD001F0004CA1
:1015D000352A27DC30B481EA0C01B2F1200309DAA4
:1015E000C2F12003044601FA03F5D0402843D1405C
:1015F0009C400CE0C3F12002450020FA03F418BF20
:1016000044F0010421FA03F091400C43002174F1ED
:10161000004550F1000051EB0C01244230BC7FF436
:101620007BAF70476146002076E70000C1F30A53A4
:1016300040F2FE329B1A14DDD3F120034FEAE1722F
:1016400008DDC90241EA505141F00040D8408018FD
:101650005040704703F2E13010B1D24382F00040B5
:101660007047002070470000C11768B14840401A19
:10167000B0FA80F29040D21CC907C2F5846241EAF8
:10168000025202EBD02140057047000070B44FF0C9
:10169000004591EA030F40F10D836B40841A71EB12
:1016A000030603D2001BB141121973414FF4001C11
:1016B0001CEB410F34BF7CEB430442E00C0DA4EB68
:1016C0001356352E4FDC45EAC323DB0A45EAC12118
:1016D000C912B6F120050DDD63FA05F6EB4086EA86
:1016E0000305124218BF45F00105C01851F1000171
:1016F0000CD213E062FA06F5F2405540F3415A402D
:10170000B340F3405A408018594107D349085FEA73
:1017100030005FEA350528BF45F0010501F580116D
:10172000420875F1004250F1000041EB04514E00B7
:1017300016F5001F70BC38BF70470020090D090561
:1017400070471CEB410F10D252EA43060BD0BCEBA2
:10175000410F05D80C0DAB43661E342EB6DD02E0FA
:10176000AB438018594170BC704770BC7047000093
:10177000F0B540F2FF7581EA030C0CF0004C15EA5D
:1017800011541DBF15EA1357AC42AF42E5E0BC410E
:10179000C1F31301C3F31303801A994143F4801377
:1017A00004D2641E4000494180185941C90241EAEF
:1017B0005051B1FBF3F603FB1611A2FB0675D7EBF4
:1017C000C020A94102D2761E80185941C90241EABF
:1017D0005051B1FBF3FE03FB1E11A2FB0E75D7EBBC
:1017E000C020A94103D2AEF1010E801859418902EF
:1017F00041EA9051760546EA8E2EB1FBF3F603FBE3
:101800001611A2FB0675D7EB8020A94102D2761EE5
:1018100080185941C90241EA50514EEA060EB1FB07
:10182000F3F603FB1611A2FB0675D7EBC020A94106
:1018300002D2761E80185941C90241EA5051B1FBCB
:10184000F3F703FB1711A2FB0735D3EBC020A94127
:1018500067F100070CBF004247F0010766F3D52788
:101860004FEA1E31B80814F5806412DDBD0775F12A
:10187000004250EB0E5051EB045111F5801F5CBF3C
:1018800041EA0C01F0BD4CF07F6141F0E0410020E5
:10189000F0BDBD076D0840EA0E5041F48011D4F14F
:1018A0000104B4F120060ADAC4F120060200E04087
:1018B00001FA06F3E1401843B24015430EE0342C20
:1018C00013DCC6F1200445EA40056D0820FA06F253
:1018D000154321FA06F0A1400D43002175F10042A5
:1018E00050F1000051EB0C01F0BD00205FEA0C014B
:1018F000F0BDCFB992185B41B3FA83F704BFB2FAD7
:1019000082F6BF190B3FB7F120062FBF02FA06F38C
:10191000BB40C7F1200622FA06F638BF3343BA406F
:101920001CB1E419641E33E77F4231F00041B1FA83
:1019300081F404BFB0FA80F6A4190B3CB4F1200680
:101940002FBF00FA06F1A140C4F1200620FA06F6E6
:1019500038BF3143A0403C1B1AE7AC421ABF05EA2E
:101960001357AF4212E050EA41061CBF52EA430649
:10197000BFE750EA4107304661461CBF41EA0551C6
:10198000F0BD52EA430C08BFC143F0BD00204FF444
:10199000001616EB410F98BF16EB430F08BF16EB6E
:1019A000410F24BFC14305E016EB430F0CBF614656
:1019B0004CEA0551F0BD0000400D491840EA812075
:1019C0000CD2490DA1F58061491C40F0004005DBB7
:1019D000D1F11F0154BFC840C017704700207047A5
:1019E000014648B1B0FA80F18840C91CC1F5846154
:1019F000090501EBD021400570470000B0B581EA30
:101A0000030C0CF0004C40F2FF7515EA11541DBF99
:101A100015EA1357AC42AF4239E0E41923EA4553C3
:101A200043F48013C90241F0004141EA505EC7020D
:101A30001100A7FB020200284FF00000EEFB01207E
:101A40004FF00001E3FB072118BF42F001024018EC
:101A500000214941E3FB0E01A4F580640F0302D28B
:101A600052004041494154F101046CDD470872F1D4
:101A7000004250F1000051EB0451A1F580115CBF10
:101A800041EA0C01B0BD4CEA05510020B0BD05EAA9
:101A90001357AC4214BFAF4241E050EA410E1CBFA5
:101AA00052EA430E02E061460020B0BD24423C44AD
:101AB0001BD15FEA070EF6D0090302BF01460020E2
:101AC000AEF1140EB1FA81F7AEEB070401FA07FE8E
:101AD0000C37C7F1200100FA07F7C8404EEA000EA4
:101AE00023EA455343F48013A2E733F00043B3FAEB
:101AF00083F704BFB2FA82FE77440B3FE41BB7F1D1
:101B0000200E2FBF02FA0EF3BB40C7F1200E22FABF
:101B10000EFE38BF43EA0E03BA40641C82E750EA67
:101B2000410E14BF52EA430E6FF000014FF400174C
:101B300017EB430F8ABF194617EB410FB5E74CEA85
:101B400005510020B0BDD4F10104B4F120070FDA33
:101B5000C4F12007520828BF42F0010210FA07F52D
:101B600001FA07F7E1BF2A43E0403843E1400FE0C4
:101B7000352C98DCC7F1200452EA400220FA07F223
:101B800018BF42F0010231FA07F0A1400A430021D8
:101B900072F1004250F1000051EB0C01B0BD80B574
:101BA000FFF772FB006C02BDD3BBD9B1B2F5803F29
:101BB0005BD2022A1ED98C46B1FBF2F102FB11C3A3
:101BC0001B0443EA1043B3FBF2FC02FB1C3380B25C
:101BD00040EA0343B3FBF2F002FB103240EA0C4050
:101BE00000237047022A05D98446B0FBF2F002FBBD
:101BF00010C270474AB105D100F0010249085FEAFE
:101C00003000704700220023704700F009B90B0034
:101C10000200002100207047F7D300220023704704
:101C2000904271EB030CF2D370B5B1FA81F4B3FAC0
:101C300083F52C1BA340C4F1200532FA05F633438B
:101C4000A2405FF00046E64002E05B085FEA320235
:101C5000841A71EB030524BF204629467641F4D34C
:101C600002000B003000002170BD70B5B1FA81F4A4
:101C7000B2FA82F5C4F120046419B4F12006DAD373
:101C8000B2405FF00044F440002502E052085FEAF1
:101C90003303C61A71EB020E24BF3046714664410D
:101CA0006D41F3D302000B002000290070BD01201C
:101CB00000F0B8B8841A71EB030604D26E40001B22
:101CC000B141121973414FF4001C1CEB410F34BF9A
:101CD0007CEB430683E00C0DA4EB1356362E00F389
:101CE0007C80012E45EAC32341DC43EA525312BFF4
:101CF000D20292025B08240545EAC12141EA505113
:101D0000D2EBC020994125D407D1B0FA80F610FA61
:101D100006F162D00020203608E0B1FA81F6B14029
:101D2000C6F1200220FA02F21143B0404FEAF474E7
:101D3000B4EB465434F001064FEA74040AD8D6F5E1
:101D40000016760D04F00044F04061FA06F25040AF
:101D5000F1404840C00A40EA415021F0004128BF0C
:101D60005FEA500550F1000044EBD12135E0DB0A79
:101D700045EAC121C90AB6F120050EDD42EA024258
:101D8000120CC5F1200603FA06F6EB4042EA0605FE
:101D90006D42984161F100010DE062FA06F5F240F2
:101DA000554063FA06FC82EA0C02F3405A406D4249
:101DB000904161EB030111F4801F05D1641E62059F
:101DC00002D06D004041494121F48011430875F172
:101DD000004350F1000041EB045170BC70471CEB14
:101DE000410F15D223F0004352EA43060BD04FEACD
:101DF0004C0CBCEB410F04D80C0D661E342EB7DD25
:101E0000EBE7801A994150EA410608BF0021E4E758
:101E100008BF1CEB430F28BF6FF00001DDE7000097
:101E20007047000080B5AFF30080024A110018200F
:101E3000ABBEFBE7260002002DE9FC47050065D09C
:101E4000DFF8A076DFF8AC66BC68F86800F003083D
:101E50002878C10604F00C0448D524B10C2C08BF26
:101E6000B8F1010F2CD13868810702D5A869002884
:101E70004CD0396808074EBF396871680909286A6B
:101E800001F0F001814206D200F0F2FA00283DD1C3
:101E900000F0F5F907E000F0F2F924B9286A00F043
:101EA000E7FA002832D100F086FABA6800F079FA31
:101EB000DFF83806006800F035FB010016D0D8E1E5
:101EC000A86928B3396841F00101396000F04CFB82
:101ED00081463868810707D400F046FBA0EB090073
:101EE0000328F6D30320C4E100F0C9F92878C1071C
:101EF00056D5082C04D00C2C08BFB8F1030F18D10C
:101F0000386881034CD56868002849D10120B0E1C8
:101F1000386840084000386000F026FB8146386889
:101F20008107E3D500F020FBA0EB09000328F6D3DE
:101F3000D8E76868B0F5803F04D1386840F4803055
:101F4000386011E0B0F5A02F386806D140F4802049
:101F50003860396841F4803105E020F48030386021
:101F6000396821F480213960686860B100F0FCFABA
:101F700081463868810313D400F0F6FAA0EB09001B
:101F80006528F6D3AEE700F0EFFA814638688103A2
:101F900006D500F0E9FAA0EB09006528F6D3A1E721
:101FA0002878810713D5042C04D00C2C08BFB8F175
:101FB000020F22D13868410502D5E8680028A5D073
:101FC0007868296920F0F85040EA01607860287844
:101FD000010743D568690028706830D040F00100DF
:101FE000706000F0C1FA80467068810736D400F056
:101FF000BBFA00F040F9F7D374E7E86878B13968C4
:1020000041F48071396000F0AFFA804638684105CC
:10201000D6D400F0A9FA00F02EF9F7D362E73868B9
:1020200020F48070386000F09FFA804638684105DF
:10203000CDD500F099FA00F01EF9F7D352E7400829
:102040004000706000F090FA80467068810705D506
:1020500000F08AFA00F00FF9F7D343E72878410738
:1020600067D5B86DC1004FF000080AD4B86D40F0D4
:102070008050B8654FF00108B86D00F080500090B6
:102080000098DFF87494D9F80000C10513D4D9F88A
:10209000000040F48070C9F8000000F065FA824644
:1020A000D9F80000C10506D400F05EFAA0EB0A00E2
:1020B0000328F5D316E7A868012804D1306840F05A
:1020C0000100306010E00528306806D140F00400BF
:1020D0003060316841F0010105E0400840003060A7
:1020E000316821F004013160A86841F2893960B19A
:1020F00000F03AFA82463068810713D400F034FACF
:10210000A0EB0A004845F6D3ECE600F02DFA824633
:102110003068810706D500F027FAA0EB0A00484591
:10212000F6D3DFE6B8F1000F03D0B86D20F0805091
:10213000B865A86A002800F09B80022878D1F8686A
:10214000EA6A00F00301914201BF00F070012A6BBE
:10215000521EB1EB021F1ED16A6B00F4FE41B1EBBF
:10216000022F18D1A96B07290CBF0021012100F40F
:1021700000328A420FD1EA6B520800F4C001521EAD
:10218000B1EB425F07D1296C490800F0C060491EDD
:10219000B0EB416F48D00C2C4BD03868410101D4D2
:1021A0003868C1003FF5B2AE386820F08070386002
:1021B00000F0DAF904463868810105D500F0D4F959
:1021C000001B0328F7D38DE6F868DFF83013EA6ABE
:1021D0000840296B1043491E40EA0110EA6B696B05
:1021E000520840EA0120296C521E490840EA425038
:1021F000491E40EA4160A96B090940EA4140F86084
:10220000386840F080703860F96841F08071F9609A
:1022100000F0AAF904463868810129D400F0A4F935
:10222000001B0328F7D35DE63868810120D4E7E777
:102230000C2C3FF46BAE386820F080703860396841
:1022400011F0205F03D1F86880088000F860F96819
:10225000DFF8AC020140F96000F086F90446386806
:10226000810105D500F080F9001B0328F7D339E67A
:102270000020BDE8F687A0EB080003287047386807
:1022800040F0080038603968286A21F0F001014305
:1022900039607968E86921F47F4141EA0021796079
:1022A00070472DE9F0410400884658D0DFF85462A9
:1022B000306800F00700404509D23168C90848EA93
:1022C000C1013160306800F00700404547D12078F7
:1022D000DFF81052C1072AD56068032802D12968A7
:1022E0008A0108E0022802D129688A0303E0002855
:1022F000296802D18A0702D431E04A052FD5A9689E
:10230000890840EA8100A86000F02EF90746A86815
:10231000616800F00C00B0EB810F08D000F024F9E8
:10232000C01B41F289318842F1D3032037E0207885
:10233000810705D5AA68A06822F0F0020243AA60CE
:10234000316801F0070188450BD23068C00848EABF
:10235000C0003060316801F00701414501D0012023
:102360001DE02078410705D5AA68E06822F4E06204
:102370000243AA602178080706D5A968206921F4DC
:10238000605141EAC001A96000F015F8AA6800F0A8
:1023900008F8BDE8F0415548006800F0C3B8BDE852
:1023A000F0815949C2F30312895C4F4A01F01F01C1
:1023B000C8401060704770B54A4A554B9068D6685F
:1023C0000025002110F00C0006F00306514C03D04C
:1023D0000C2812D1012E1AD115682E0704D4444DB1
:1023E0002E68C6F3032502E01568C5F303154A4EAF
:1023F00056F8255048B9294624E0042808BF21464C
:1024000020D008281ED119461CE00C281AD1D0680B
:1024100000F00300022803D0032808BF1D4600E097
:102420002546D168D068D268C0F306204543C1F381
:102430000210C2F34161401C491CB5FBF0F0490099
:10244000B0FBF1F1084670BD2748304A00681368B8
:102450003249C3F3022206E023482C4A006813687D
:102460002E49C3F3C222895C01F01F01C8407047A6
:102470007CB52B4E054630680024C10002D500F023
:1024800079F80EE0306840F080503060316801F03B
:1024900080510091009800F06DF8316821F0805172
:1024A0003160B0F5007F04D1802D0CD9A12D09D366
:1024B00004E0802D88BF032405D801D1022402E066
:1024C000702D00D101240F480168C90844EAC101F8
:1024D0000160006800F00700A04201D0012076BD35
:1024E000002076BD001002409C00002094000020D7
:1024F0009410024090100240007000408C809DF9C2
:10250000FFFFEEFE00200240245B0008081002409E
:1025100000127A000024F400345B0008405C0008DC
:102520005810024070B50E4E0446B0680025A0B1A8
:102530004FF47A710B4AB1FBF0F11068B0FBF1F087
:1025400000F0A6F848B9102C07D2002221464FF01F
:10255000FF3000F075F8746000E00125284670BD7A
:10256000900000209C00002001480068704700BFD8
:1025700090000020DFF88400006800F4C06070471D
:1025800010B5DFF87810B0F5007F086800F4C0607F
:1025900019D1B0F5007F1FD00868DFF86420DFF89C
:1025A000644020F4C06040F4007000F01FF800E0C8
:1025B000401E4A69530501D50028F9D148694105F3
:1025C0000AD5032010BDB0F5806F05D0086820F44F
:1025D000C06040F480600860002010BDDFF8280073
:1025E000FFE7016841F480610160704708603220B4
:1025F00013684343B3FBF4F0401C70470070004085
:102600009C00002040420F000470004009010200BD
:1026100002D4294881547047284B02F00F021A4413
:1026200002F8041C7047264B19684FF6FF0200029F
:10263000114000F4E06008432249084318607047E5
:1026400070B51F4B1C68C4F302230124C3F10705B6
:10265000052D2EBF0F2504FA05F56D1E1E1D072E34
:1026600034BF0023DB1E2940994004FA03F3BDE880
:1026700070405B1E1A401143C8E7010007D40122D5
:1026800000F01F01104B8A40400943F8202070479A
:1026900010B5401EB0F1807F01D3012010BD0B4C5E
:1026A00060600F214FF0FF30FFF7B0FF0021A16005
:1026B00007202060002010BD00E400E018ED00E0DD
:1026C0000CED00E00000FA0500E100E010E000E0A1
:1026D0002DE9F84F90B000F035FB00F086FA142198
:1026E000684600F03FFBDFF8C805DFF8C8950168D1
:1026F000DFF8C455DFF8C465DFF8C475DFF8C485BA
:1027000041F01001016048F20414026802F0100266
:1027100005920599026842F004020260036803F022
:10272000040305930599026842F001020260036800
:1027300003F0010305930599026842F0020202606A
:10274000036803F0020305930599026842F008024A
:1027500002600022006800F0080005904FF48A71C2
:102760000598484600F064FC002221464FF0904056
:1027700000F05EFC00224FF21401284600F058FCE5
:10278000002241F28101304600F052FC01224FF458
:102790000051304600F04CFC00224FF410713846D6
:1027A00000F046FC01222021284600F041FC0122D5
:1027B0000121484600F03CFC40F2151100F0FFF901
:1027C000484600F0D3FA6A20002100900291CDF82B
:1027D00004806946484600F0C9FA4FF40050DFF81B
:1027E000E81400F0F4F93F200B2100F0F0F900228A
:1027F000032002210292009001910390082200F030
:10280000EEF901200190002202920392009400F060
:10281000E7F9002202920392082002210090019120
:10282000012200F0DCF9102000F0BDF900F0D8F929
:102830000221019100220292E020032100900391E5
:10284000052200F0CCF9012100F0B3F928466946D1
:1028500000F08CFA022000F0A6F900F09BF94FF28C
:10286000340100F0ACF900F096F94CF6044100F0A8
:10287000A0F93046694600F079FA43F2810100F090
:102880009EF9304600F072FA4FF4107100F097F99B
:10289000384600F06BFA4FF4C07100F08AF9384600
:1028A000694600F063FA00220292022003210090A0
:1028B00001900391052200F071F90221019100229B
:1028C00002927820032100900391072200F066F91C
:1028D00012210191012202920321039104224FF45B
:1028E00040760492009600F055F90022002117204E
:1028F000FFF7A6FE1720FFF7C0FE002200212820C8
:10290000FFF79EFE2820FFF7B8FE0121DFF8BC4349
:10291000DFF8BC03217120604FF48071A1610220B7
:10292000042121620022E0600121A2602261626133
:10293000E2616262A162E2622263204600F09CFBD7
:1029400004F22455E348E449286000220120E860AD
:102950006960AA602A616A61AA61EA612A622846FE
:1029600000F034FC0021284600F0F8FE0021284643
:1029700000F009FFD948E864FF2129650120686556
:102980000021E865A9652966696604F5AE6000F076
:1029900025FFD348A0634FF4827100202064A06417
:1029A000E0646065E065E16307204FF400716066F4
:1029B000216508200021E066A1652166A1666664A4
:1029C00004F1380000F086FFC648C74901600022C4
:1029D0000C214FF4E13500F0D2F804F2A440C349D1
:1029E0000FF2403B0FF2343A0FF228390FF21C3845
:1029F0000FF21036C1A7016000220C2100F0BFF8D1
:102A0000062204F19C004FF0A04142600223002204
:102A10000160C3608361C2610262426282620263DA
:102A2000C262002500F0AEFF0CA8002100220023A6
:102A300080E82E00142107A800F094F968460021D0
:102A40000022002380E80E0003A880E82E0004F294
:102A5000B455A74929606A60AA60EA602A616A6180
:102A6000AA61284600F0FCFF4FF480500C900CA99E
:102A7000284601F066F9284601F009F8002107917F
:102A80000891284607A901F0ADF9002000900190B7
:102A900002906946284601F0F3FA012204920021CF
:102AA000039105910022069203A9284601F0B5F88A
:102AB0001021284601F021FB01F04EFB01F066FBDE
:102AC00001F07EFB01F092FB01F0ACFB01F054FB46
:102AD00085ED150A01F06AFB85ED160A01F07DFB14
:102AE00085ED170A04F2FC5001F090FB04F2F4505B
:102AF00001F0A9FB686D01F0B3FB02460B463846B6
:102B000001F0D2FBA86D01F0ABFB02460B4630464C
:102B100001F0CAFBE86D01F0A3FB02460B464046FC
:102B200001F0C2FBA86C01F09BFB02460B46484635
:102B300001F0BAFBE86C01F093FB02460B465046ED
:102B400001F0B2FB286D01F08BFB02460B465846A4
:102B500001F0AAFBB5F940100FF2D01001F0A4FB70
:102B6000B5F942100FF2CC1001F09EFBB5F94410FC
:102B700072A001F099FB0A2001F0AAFBA6E782608F
:102B8000C260026141618261C2610262426245606B
:102B900001F0B2BB6946284600F0E8B804926946E5
:102BA000304600F0E3B80B21009001910022029220
:102BB00070470091CDF80480002102917047009188
:102BC0000122002102910391019269467047009011
:102BD0000191002202926946384600F0C7B804927B
:102BE00069464FF0904000F0C1B880B5B8B04421BC
:102BF00005A800F0B7F81421684600F0B3F8882162
:102C000016A800F0AFF801F045FE3A48016821F03F
:102C100018010160142205920121602207910B9195
:102C20000D92002101220C91109211920221282272
:102C30000F9112920721022213911492159205A866
:102C4000FFF7FAF80F200321FFF7AEFF039204927B
:102C500004216846FFF725FB0122179218920021F4
:102C60001822249126912B91369119924FF0806170
:102C7000022231911B921C9207211F4816904FF49B
:102C800080121A911D9216A801F00CFE4FF40070EC
:102C9000FFF776FC01F0A2FF39B000BD01B54FF699
:102CA000FF73012269460F4801F066FB009802BDE0
:102CB0004C1002400010004800040048000C00487E
:102CC00000080048000011100000211068010020D9
:102CD0002060014000580040EC9C9010001000A0C3
:102CE000003C00407C0700200038014000480040C4
:102CF000002C0140901002408520010048252E3410
:102D0000660A000050252E34660A000054252E3431
:102D1000660A00004778252E34660A004779252E7A
:102D200034660A00477A252E34660A004178256405
:102D30000A000000417925640A000000417A2564F8
:102D40000A000000032010B5FFF76DFC0020FFF71C
:102D5000E9FB0024002814BF012402F04BF82046B0
:102D600010BD0000002202F0E3B900002DE9F84F89
:102D70004FF0000EB54BDFF8D882DFF8D8924FF055
:102D80000F0A07468C462BE0B34DAF4214BF072510
:102D900006258D40254348F82250C1431A68DCF8C7
:102DA00004400A40E50348BF02431A605A68DCF851
:102DB00004400A40A50348BF02435A609A68DCF801
:102DC00004400A40E50248BF02439A60DA680A40BC
:102DD000DCF804108C0248BF0243DA600EF1010EE9
:102DE000DCF8001031FA0EF000F0A080012202FAA7
:102DF0000EF212EA0100F1D0DCF80440022C18BFF8
:102E0000122C4FEA8E0110D14FEADE0407EB840446
:102E100001F01C05266A0AFA05FB26EA0B06DCF817
:102E200010B00BFA05F5354325624FEA4E04032531
:102E30003E689CF804B0A540ED430BF0030B2E4018
:102E40000BFA04FB4BEA06063E60D243DCF8046052
:102E5000012E18BF022E03D0112E18BF122E13D12F
:102E6000BE68DCF80CB02E400BFA04FB4BEA0606F9
:102E7000BE607E68DCF804B0CBF3001B16400BFA92
:102E80000EFB4BEA06067E60DCF8046006F0030BDE
:102E9000BBF1030F09D1D7F82CB0C6F3C00602EA84
:102EA0000B0206FA0EF63243FA62FA681540DCF8B5
:102EB000082002FA04F42C43FC60DCF80440E20031
:102EC0008CD5D9F8004044F00104C9F800404FEA1D
:102ED0009E02D9F8005005F00105009501F00C01A3
:102EE000009C58F822500AFA01F425EA0404B7F1CC
:102EF000904F08BF002518D0584DAF4208BF01259C
:102F000013D0574DAF4208BF02250ED0554DAF42EA
:102F100008BF032509D0544DAF4208BF042504D093
:102F2000524DAF427FF430AF052532E7BDE8F18F57
:102F30002DE9F04F8A464FF0000B4449444B0F22D5
:102F4000044640E0444EB44214BF0726062606FA63
:102F50000EF6B54212D10D68C04305400D604D68B4
:102F600005404D608D6805408D60CD682840C86083
:102F700053F8280020EA090043F8280003254FEA07
:102F80004B0005FA00F025680543256007F01C0793
:102F90004FEADB0504EB850502FA07F72E6A26EAFD
:102FA00007072F62C043A7680740A7606FEA0C05B8
:102FB00066682E406660E7683840E060E06A284056
:102FC000E0620BF1010B3AFA0BF02FD0012000FA6E
:102FD0000BFC1CEA0A00F4D04FEA9B084FEA8B076F
:102FE00053F8285007F00C0E02FA0EF9B4F1904F86
:102FF00009EA050508BF0026A9D0184EB44208BF4B
:103000000126A4D0164EB44208BF02269FD0154E0A
:10301000B44208BF03269AD0134EB44208BF042618
:1030200095D0124EB4428DD1052690E7BDE8F08FC1
:103030000AB181617047816270470D4A136803428B
:103040001CBF106000F016B870470000000401407B
:1030500008000140601002400018004800040048C9
:1030600000080048000C0048001000480014004808
:10307000140401407047000070B5040005D000F052
:1030800067F8291D51F8200008B1012070BD2046C5
:1030900001F0C7FE2868401C2860296801291AD160
:1030A000DFF8B810086820F0804008600A68A0685F
:1030B00002430A600B6823F47F030B602079012828
:1030C00005D10A68E068401E42EA00420A600868CA
:1030D00040F0004008602068016821F471410160FF
:1030E000036826696269A16916430E43334303608E
:1030F00003681B091B0103600268E369216A0B4333
:103100001A430260826822F45F0282608168A36AC7
:10311000626A5B1E42EA034211438160416801F02A
:10312000070141604168236BE26ADB0043EA022346
:10313000194341600122016841F08001016084F877
:10314000342000F00DF8291D41F82040002070BD0A
:103150002068DFF85C5000F003B800000060014018
:103160001249884201D1002070471249884201D19A
:10317000012070471049884201D1022070470F4951
:10318000884201D1042070470D49884201D10520B1
:1031900070470C49884201D1062070470A4988428D
:1031A00001D10720704703207047000000600140F4
:1031B000980800202060014040600140806001408C
:1031C000A0600140C0600140E060014038B50400EB
:1031D00001D1012032BD04F14005687820B90021F9
:1031E0002970204601F03CFE00F053F86068216829
:1031F00020F0706008612068816821F400418160DE
:10320000E06821680128A0680CBF40F4004040F449
:1032100004408860E068022803D120684FF4006110
:1032200041602068416841F0007141F40041416013
:103230002068C16821F40041C16060692169A26908
:103240000143206841EA0221C160206AE1692268E5
:10325000014311602068016841F001010160002014
:103260006860202169702063A87032BD38B5040001
:1032700001D1012032BD04F1400500F00AF82046DA
:1032800001F018FE0020686068702063A870287044
:1032900032BD242068702068016849084900016037
:1032A000704700904FF08073FF22704700904FF0FE
:1032B0000073D2B270478146CDF8009019230122E5
:1032C0004FF40041304600F096B901224FF400411E
:1032D000304600F090B92DE9FE4F00F004F94ED1D0
:1032E0000C9D002D1CBF0D9F002F03D14FF40071CA
:1032F00061603FE02078012841D001212170FFF773
:1033000033F9FFF7D8FF002834D1212000F003F96A
:1033100000F016F910B1002020702BE0708DFF2511
:10332000B0F5807F19D300F0EFF800F0D8F80E9FC9
:103330004A463946304600F07FF900281AD100F09D
:1033400025F811D089B279B900F030F890B900F0C1
:1033500019F805D300F0D8F804E000F0CDF8E4E760
:1033600000F0CAF800F0BBF8708D0028E0D100F042
:10337000A2F808B1012003E000F020F800E00220EC
:10338000BDE8FE8F708DB0F5807F7047706A32683F
:1033900001789162706A411C7162708D411E718565
:1033A000308D411E3185708D00287047CDF800901A
:1033B0003B4600228021304600F01DB931682020B4
:1033C000C8613168DFF874014A6802404A60202110
:1033D00061700020A070207070472DE9FE4F00F052
:1033E00082F865D10C9D002D1CBF0D9F002F03D1CD
:1033F0004FF40071616056E02078012858D0012117
:103400002170FFF7B1F881463068816908040ED554
:10341000FFF7AAF8A0EB09001A28F5D3606840F07E
:1034200020006060202161700020A07006E0222052
:1034300000F071F800F09FF810B10020207032E029
:10344000718DDFF8F400FF25B1F5807F1CD3358541
:10345000FFF727FF00F043F80E9FCDF800903B46A2
:1034600000220421FFF734FF00281CD100F028F8C7
:1034700098B189B289B9FFF799FFA0B9FFF782FF28
:1034800007D300F041F806E0728D3285FFF70EFF9A
:10349000E0E700F031F800F022F8708D0028DCD170
:1034A00000F009F808B1012003E0FFF787FF00E012
:1034B0000220BDE8FE8F4A463946304600F0E4B8A7
:1034C0003068416A706A0170716A308D4A1C411E11
:1034D00072623185708D421E7285708D70474146D3
:1034E000304600F023B9064606F14004884660786D
:1034F000202892469B467047728D328500200090AE
:103500004FF00073D2B270473585002000904FF025
:103510008073FF22704760704021A17000206060BE
:103520007562778570635B460E9900915246CDF8BF
:1035300004904146304670470024008000E800FEB9
:103540002DE9FC4100F031F84FF08073EAB200F051
:10355000EDF800F03EF858B9012D02D000F036F831
:1035600030B900F02CF88021204600F044F800B17A
:103570000120BDE8F6812DE9FC4100F016F800239A
:10358000EAB200F0D3F800F024F858B9012D02D0C7
:1035900000F01CF830B900F012F84021204600F08D
:1035A0002AF800B10120BDE8F6811746DDF8208039
:1035B000099EDFF89C2100921D4604467047206852
:1035C000FFB2876200964346002270472168380A9E
:1035D00088623246414620462EE0006881698A07AB
:1035E00044BF002181628169CA0703D4816941F027
:1035F0000101816170472DE9F041069F05460E46A5
:1036000090461C46286881693140B1420CBF0120B8
:10361000002040450DD114F1010FF3D0FEF7A4FFB7
:10362000C01B844201D3002CECD100F021F8012012
:1036300000E00020BDE8F08170B505460C46164656
:1036400028688169880711D400F036F808B1012094
:1036500070BD14F1010FF3D0FEF786FF801B84428A
:1036600001D3002CECD100F003F8F0E7002070BD8E
:1036700005F140002022416841F020014160427084
:10368000002181700170704770B505460C461646E2
:103690002868816988060DD400F00EF840B9FEF75D
:1036A00063FF801B844201D3002CF1D1FFF7E0FFC0
:1036B000012070BD002070BD324621462846FFE73C
:1036C00070B505460C4628688169C80616462BD594
:1036D000286881698A060FD414F1010FF8D0FEF72B
:1036E00043FF801B844201D3002CF1D105F140003F
:1036F000416841F0200111E01021C16120202A68B9
:10370000D0612846FFF769FF2868124A41681140D6
:10371000416005F14000416841F004014160202210
:10372000FFF7ADFF012070BD002070BD70B50068CF
:10373000049C4568084E46EA5456B543C1F3090156
:10374000294341EA024119432143416070BD000011
:103750000020008000E800FEFF63FF0330B500F1A9
:1037600040025378202B0CD11478012C09D000F0A2
:103770001DF824F480541C6003681D6829431960F7
:1037800020E0022030BD30B500F140025378202BFC
:103790000AD11478012C07D000F008F824F47064E2
:1037A00044EA01241C600DE0022030BD01231370A7
:1037B0002424547003681D686D086D001D60036843
:1037C0001C6870470068016841F001010160202019
:1037D000507000211170002030BD0000F8B5044683
:1037E000FEF7C2FE06460CB90120F2BD04F1380511
:1037F0002878012801D10220F2BD012129706878C2
:1038000038B900212970204601F063FB41F288306D
:10381000A860334620680168A26821F47061521ED6
:1038200041EA0221016000F029F801001ED122685E
:103830001049136866680B40E16843EA06630B436E
:1038400013600D4923685E68276962690E4046EA85
:103850000746A16916430E435E6021680A6842F07C
:1038600001020A600021696001226A70002129704A
:10387000F2BD0000EFFFFF00FEF8E0FF0022A868A5
:10388000009020212046FFE72DE9F041069C0546E7
:103890000E4690461F462868816816EA010018BF48
:1038A0000120404512D014F1010FF4D0FEF75CFE68
:1038B000C01B844201D3002CEDD1042085F83900CF
:1038C0000120E96B41F00101E96300E00020BDE85F
:1038D000F081000070B5040001D1012070BD00200E
:1038E000A06204F15C05687820B9002129702046A7
:1038F00001F028FB0220687000F03DF8E168B1F5A6
:10390000E06F04D90022B1F5706F03D104E04FF4E9
:10391000805201D00020A062206B30B9B1F5E06F79
:1039200087BF02202063012121636368A0682169A9
:103930002668034360690B43A169034301F40071E6
:10394000E0690B43216A0343A06A0B4303433360DE
:10395000A369606A616B1B0C03F004030343E06816
:103960000B4303431A4323685A6000216960012016
:103970006870002070BD2068016821F0400101607E
:103980007047000070B504008AB04BD0266804F57B
:103990006F75687820B900212970204601F05DFB21
:1039A00003206870F16BC8055CBF002121612068AD
:1039B00001F009FC83B000F04EF80EBC206801F065
:1039C000D1FB00282CD12068002101F002FC00214D
:1039D0001C2000260AE010FB01F222443C320123A5
:1039E00053701170D180002300F02EF8626891426C
:1039F000F1D3002109E010FB01F2224402F5FE722E
:103A000000231170537000F01FF862689142F2D3E6
:103A100083B000F020F80EBC206801F0EEFB18B176
:103A20000220687001200DE084F8380001216970DF
:103A3000606A012804BF204601F0D0FC206801F034
:103A4000A5FC00200AB070BD491CD6709360D660FA
:103A50005361C9B27047211D68463422FDF7D4BCBA
:103A600038B5040001D1012032BD00F021F818B9A9
:103A700000F01AF801F08FFAFFE702206870211DAC
:103A8000206800F0DBF901206870002032BD38B5F5
:103A9000040001D1012032BD00F00AF818B900F08D
:103AA00003F801F0AEFCE8E70021297020467047DA
:103AB00004F13C056878704710B504462068016938
:103AC0008A0715D5C1688A0712D56FF00201016116
:103AD00001222277806910F0030F204602D001F006
:103AE00091FC03E001F08FFC00F094F800202077B7
:103AF000206801694A0715D5C1684A0712D56FF0D9
:103B00000401016102222277806910F4407F20467F
:103B100002D001F077FC03E001F075FC00F07AF8C8
:103B200000202077206801690A0715D5C1680A07B7
:103B300012D56FF00801016104222277C06910F0EC
:103B4000030F204602D001F05DFC03E001F05BFCB6
:103B500000F060F80020207720680169CA0615D5BA
:103B6000C168CA0612D56FF01001016108222277E0
:103B7000C06910F4407F204602D001F043FC03E00E
:103B800001F041FC00F046F8002020772068016930
:103B9000CA0708D5C168CA0705D56FF001010161E0
:103BA000204601F031FC206801690A0608D5C16889
:103BB0000A0605D56FF080010161204601F025FC61
:103BC00020680169CA0508D5C1680A0605D56FF4E1
:103BD00080710161204601F019FC206801694A06E4
:103BE00008D5C1684A0605D56FF04001016120463D
:103BF00001F00DFC206801698A060AD5C1688A06B1
:103C000007D56FF0200101612046BDE8104001F0AA
:103C1000FFBB10BD204601F0FCBBF8B500F07FF8FB
:103C200001D10220F2BD00F087F882B9EB686A6822
:103C30002968306800F091F93068816921F00C0141
:103C4000816131688A69A86802438A615CE0042A5C
:103C500010D1EB686A682968306800F0CEF93068E6
:103C6000816921F4406100F056F8AA6841EA022116
:103C7000816149E0082AE9686A682B6823D13768BE
:103C8000386A20F4807038621B0207F11C0003F4CC
:103C90002063D0F800C0D7F820E04FEA9C0C42EA3D
:103CA0008C0261F3071202602EF4206003433B6232
:103CB0003068C16921F00C01C1613168CA69A86826
:103CC0000243CA6120E030681C301B03476827F4B8
:103CD0008057476003F420430768D0F804C027F4F6
:103CE000407747EA022761F30F372CF42041076041
:103CF0000B4343603068C16921F4406100F007F86C
:103D0000AA6841EA0221C16100F010F8F2BDC16168
:103D10003068C169704781613068816970470646C3
:103D200006F13C040D4620780128704701206070A0
:103D30000021217000207047012020700221617055
:103D4000704738B500F05DF801D1022032BD012086
:103D5000207002226270DFF860022A6893680340D4
:103D600093600868020018BF10282DD0202818BFC3
:103D7000302829D0402823D0502816D0602818D0C9
:103D8000702803D0B0F5005F07D021E000F025F8DF
:103D90002868816841F0770105E000F01EF8286886
:103DA000816841F48041816012E000F012F85021F6
:103DB0000BE0CA684968286800F035F9602104E022
:103DC00000F007F8402100E00146286800F03DF9C6
:103DD0002EE0CA684968286800E1CB684A688968AB
:103DE00028683AE138B500F00CF801D1022032BD64
:103DF00000F00DF800B110E02868C16821F0400122
:103E000010E0054605F13C042078012870470120A8
:103E1000207002226270284666E001206070002156
:103E2000217032BDC1602868C16821F48041C16041
:103E30000120607000212170002032BD2DE9F04387
:103E4000DFF87871D0F800C0DFF87431DFF8744122
:103E5000DFF87451DFF87461DFF874E1DFF8748122
:103E6000DFF87491B84218BFB0F1804F07D04845D1
:103E700018BF404503D0704518BFB0420ED14A6804
:103E8000B8422CF0700C18BFB0F1804F42EA0C0C15
:103E90000CD048451CBF4045704507D0B04218BF04
:103EA000A84203D0A04218BF984204D1CA682CF49B
:103EB000407C42EA0C0C4A692CF0800C42EA0C026D
:103EC0000260B8428A68C26218BFB0420A68826261
:103ED00004D0A8421CBFA042984201D109690163E5
:103EE00001224261BDE8F08338B50068314B856836
:103EF0004C680A6825F0700525431D401543856010
:103F00004C68402C0BD0502C1CD0602C1FD0702C37
:103F100021D10B698A68C96800F09FF81BE00A6824
:103F2000052A01D1012032BD026A036A5B085B00E9
:103F300003628369096923F0F00343EA0113836193
:103F4000026208E00A69896800F048F803E00A693B
:103F5000896800F068F8002032BDF0B5046A174E99
:103F6000640864000462B0428469056A18BFB0F155
:103F7000804F0DD0184EB0421CBF164FB84207D02C
:103F8000134EB0421FBF114FB8420F4EB04203D183
:103F9000A40842EA840201E044F0010263F307123C
:103FA00025F00A0501F00A01826129430162F0BD92
:103FB00000000000F8FFFEFF8800FEFF002C01401B
:103FC00000480140004401400040014000340140ED
:103FD000000C0040000800400004004010B5036AD7
:103FE000046A64086400046223F00A03846924F00C
:103FF000F00444EA0214846139E030B5046A24F024
:104000001004046209018469056A24F4407444EAD6
:10401000022463F30F3425F0A00501F0A0018461B0
:104020002943016230BD10B5036A23F01003036217
:104030008369046A23F4704343EA023324F0A00442
:10404000836144EA0114046210BD826822F07002A8
:10405000114341F007018160704710B5846824F472
:104060007F442143114341EA0321816010BD19437C
:10407000016210BDCA60002180F83C10002010BD14
:10408000F0B500F13C042278012A01D10220F0BDF4
:1040900001222270022363700668DFF8A4E07768CB
:1040A000DFF8A0C0B568764518BF664503D14B68F8
:1040B00027F470071F430A6827F0700717437760DB
:1040C0000268724518BFB2F1804F0CD01E48824280
:1040D0001CBF1E4B9A4206D01D4882421EBF62453D
:1040E0001C4B9A4204D1886825F0800505439560F1
:1040F0000121617000202070F0BD10B590F83C20C7
:10410000012A01D1022010BD012280F83C20036861
:104110000B4CA34218BFB3F1804F05D00A4A93421B
:104120001CBF084CA34206D11C6E24F4E03401F4F9
:10413000E03214431C6621F4E03119659BE700006E
:10414000002C014000340140000400400008004001
:10415000000C00400040014010B50A4C6168BE20D0
:104160008847BC2801D0012010BD07480460BE204C
:1041700021688847002010BD03490A689368BE2063
:104180001847000000000020C408002010B50A4CA9
:104190006168BA208847B12801D0012010BD0748C6
:1041A0000460BA2021688847002010BD03490A68CE
:1041B0009368BA20184700001C000020C80800209F
:1041C00010B5084C0848206001F0A3F92268136874
:1041D0000021BE209847002010BD02490A68D3681C
:1041E000BE201847CC0800200C00002038B50B4D2D
:1041F000A868804701246A2806D10948056044F26E
:104200003C40296888470024204632BD044909689B
:1042100019B1096B002918BF084770475C000020DE
:10422000C008002038B50C4DA868804700246A28D3
:1042300018BF012405D10948056044F230402968BF
:104240008847204632BD0549096819B1096B002924
:1042500018BF08477047000028000020BC08002055
:10426000C0F3C75181B1FF2906D0C110400721F02A
:10427000E04101F16051704741020CBF40F4E001A0
:104280006FF000410020704700F0004100020AD0AA
:10429000B0FA80FC00FA0CF001F16051A1EB0C5176
:1042A00001EBD021400570470EB4C0B5024603A80B
:1042B00000210190009101AB0121044878440C30A9
:1042C000FBF762FF06BC5DF810FB00BF371900006A
:1042D00038B50446FEF748F914F1010F054602D03F
:1042E000044988680419FEF73FF9401BA042FAD33D
:1042F00031BD00BF9000002038B5040009D004F1A2
:104300007005696809B900F01EF800F021F801286D
:1043100001D1012032BD606A08B100F02AF800F036
:104320000AF821F02A01FFE7816000F01BF8BDE8E0
:10433000324000F03ABA2068416821F4904141606F
:1043400020688168704700202870204600F03DBE3C
:1043500024216960206802685208520002602046E9
:1043600000F066B82068016841F001010160204654
:104370007047204600F0B6B92DE9FC47054605F127
:104380007004884660682028174699464DD1B8F1D8
:10439000000F14BF002F012048D02078012844D0FE
:1043A000012121700020E0602122626005F15006A9
:1043B000FEF7DAF8378082467780A868B0F5805F2C
:1043C00004BF286900280EBF474640460027002149
:1043D000217080460FE018F8012B028508E028685C
:1043E000B8F1000FF7D137F8021BC1F308010185BE
:1043F0007088411E718053467088CDF80090002867
:1044000007D000228021284600F0FCF90028E6D0E1
:1044100005E000224021284600F0F4F908B103200D
:1044200004E020206060002000E00220BDE8F68764
:104430002DE9F04104469D4822681368A1680340B5
:1044400020690B4361690343E0690B430343136035
:1044500000265168E06821F4405101435160002575
:10446000A36991498A421CBF206A03439768904818
:1044700027F430673B4393608E4F8F4BBA4221D174
:104480001B6803F00303032B29D8DFE803F0025F66
:1044900050710127E169B1F5004F4FF6F07840F017
:1044A000D38067B1012F00F0A980022F00F0A9800E
:1044B000042F00F0AB80082F00F0B180B7E0FDF7CB
:1044C000C3FFA5E07D4FBA4223D11B6813F00C0354
:1044D0005FD0042B3AD0082B29D00C2B48D01027C2
:1044E0008A42D7D1390006D0022F09D0042F52D0EA
:1044F000082F53D0D0E0FDF7A7FF002800F0CD80B3
:10450000626802EB4201884202D31303834248D21D
:10451000C2E06B4FBA420CD11B6813F0300338D0A5
:10452000102B13D0202B02D0302B21D0D7E702271D
:10453000D6E7644FBA420BD11B6813F0C00328D0F2
:10454000402B03D0802BF2D0C02BEEE70427C7E727
:104550005D4FBA420ED11B6813F4407319D0B3F506
:10456000807FF3D0B3F5007FE1D0B3F5407FB6D1C3
:104570000827B5E78A42B2D11B6813F4406308D01C
:10458000B3F5806FE2D0B3F5006FD0D0B3F5406FD4
:10459000CBE70027A4E7FDF70EFFAEE74FF400409E
:1045A000AEE737B1022F0AD0042F0ED0082F16D055
:1045B0001BE0FDF749FF00F08FF879410AE043491D
:1045C00011EB520045EB050104E0FDF7F4FE00F0AD
:1045D00083F869410023FDF7E7FA064606E0530831
:1045E00003F50003B3FBF2F600E00125A6F54070E9
:1045F0003749884250D22268D6604EE0FDF72CFF42
:1046000006E06068334901EB50010CE0FDF7D3FE92
:1046100061684A0802EB4002B2FBF1F605E060680F
:10462000410801F58031B1FBF0F6B6B200E001259A
:10463000A6F1100040452FD208EA0601C6F3420059
:1046400001432068C16028E047B1012F09D0022F43
:104650000CD0042F08D0082F0ED015E0FDF7F4FE83
:1046600004E0FDF7F9FE01E0FDF7A5FE616800EB4F
:104670005100B0FBF1F605E06068410801F500412A
:10468000B1FBF0F6B6B200E00125A6F110004045FE
:1046900002D22168CE6000E001250020206660661D
:1046A0002846BDE8F081000000800040F369FFEF7C
:1046B0000024F4000038014088100240004400400B
:1046C00000480040004C004000500040000024F42E
:1046D00000FD0F000048E8016268010E560816EB65
:1046E0000020704790F82410CA0706D50268536866
:1046F000816A23F400330B43536090F824108A0737
:1047000006D502685368C16A23F480330B435360B3
:1047100090F824104A0706D502685368016B23F409
:1047200080230B43536090F824100A0706D50268D3
:104730005368416B23F400430B43536090F82410FB
:10474000CA0606D502689368816B23F480530B4335
:10475000936090F824108A0606D502689368C16BAE
:1047600023F400530B43936090F824104A0610D5AD
:1047700002685368016C23F480130B435360036C8D
:10478000B3F5801F05D15368416C23F4C0030B437C
:10479000536090F824100A0606D501684A68806CB8
:1047A00022F4002202434A607047F8B5044604F13F
:1047B00070050020E8606FF07E47FDF7D5FE0646E5
:1047C000206801680A0708D50097334600224FF495
:1047D0000011204600F016F860B9206801684A0709
:1047E0000AD50097334600224FF48001204600F09E
:1047F00009F808B10320F2BD20206860A8600020FD
:104800002870F2BD2DE9F041069C05460E46904603
:104810001F462868C1693140B1420CBF0120002009
:10482000404529D114F1010FF3D0FDF79DFEC01BC7
:10483000844200D35CB92868016821F4D07101601A
:1048400000F01CF8002101700320BDE8F081286809
:1048500001684A07DDD5C1690A05DAD54FF4006160
:1048600001622868026822F4D0720260002200F01F
:1048700005F8C1600270E7E70020E6E72868816874
:1048800049084900816005F1700020214160816084
:10489000704700000248016841F480710160704770
:1048A000007000402DE9FC47064600243068DFF820
:1048B00020740105A04621D5706E70B1B0F5800F4F
:1048C00017D0B0F5000F03D0B0F5400F09D013E0BA
:1048D0003A6842F480323A6004E0002100F07CF94A
:1048E000044654B9F96F706E21F440010143F96731
:1048F00004E000F06BF9F3E70124A0463068C1043E
:1049000021D5B06EA8B1B0F1807F17D0B0F1007F93
:1049100003D0B0F1407F04D013E0396841F4803116
:1049200039607CB9F96FB06E21F040710143F967CD
:1049300009E0002100F050F90446F2E700F046F9E2
:10494000FAE70124A046306881032BD5F86CC1003A
:104950004FF000090AD4F86C40F08050F8644FF032
:104960000109F86C00F0805000900098DFF8345492
:10497000286840F480702860FDF7F6FD82462868BC
:10498000C10500F18280FDF7EFFDA0EB0A000328CE
:10499000F5D30324A046B9F1000F03D0F86C20F042
:1049A0008050F8643078C10705D5FA6FB06B920873
:1049B00040EA8202FA673178880705D5F96FF06B13
:1049C00021F00C010143F9673178480705D5F96FEB
:1049D000306C21F030010143F9673178080705D5C3
:1049E000F96F706C21F0C0010143F9673178C80696
:1049F00005D5F96FB06C21F440710143F967317846
:104A0000880605D5F96FF06C21F440610143F96720
:104A10003168880505D5F96FF06D21F44021014317
:104A2000F9673168480505D5F96F306E21F44011FA
:104A30000143F9673178480605D5F96F306D21F4E7
:104A400040510143F9673178080605D5F96F706D5B
:104A500021F440410143F9673168C80505D5F96F74
:104A6000B06D21F440310143F9673168880446D5BF
:104A7000F96FF06E21F040610143F967F06EB0F11B
:104A8000006F34D100F09DF839E0002C82D1DFF8BE
:104A90005043206810F440701CBFD6F88410884240
:104AA0000BD02068216841F48031216020F44070EF
:104AB000226822F4803222602060C0070FD5FDF703
:104AC00053FD05462068810709D4FDF74DFD401BC5
:104AD00041F289318842F5D34FF003085BE7216842
:104AE000D6F8840021F440710143216053E7B0F10E
:104AF000806F04D100F06FF8010018BF8046306865
:104B0000010314D5FA6F306F22F040620243FA6756
:104B1000306FB0F1006F02D100F053F807E0B0F150
:104B2000806F04D100F057F8010018BF804630684C
:104B3000410314D5FA6F706F22F040620243FA67A6
:104B4000706FB0F1006F02D100F03BF807E0B0F1F8
:104B5000806F04D100F03FF8010018BF8046306834
:104B6000410418D5FA6FB06F22F040520243FA6741
:104B7000B06FB0F1805F03D1022100F02DF807E0A3
:104B8000B0F1005F07D1022106F1200000F0A2F889
:104B9000010018BF80463068010405D5FA6FF06F38
:104BA00022F080420243FA673168C80306D5F96FE4
:104BB000D6F8800021F000410143F9674046BDE886
:104BC000F687386840F4801038607047002106F19D
:104BD000200000F07FB80121301D05E08148016808
:104BE00041F00401016070472DE9F04105467D4F19
:104BF00028680C46F968002611F0030F0DD0F968FB
:104C000001F00301814231D180B3F8686968C0F3D3
:104C10000210401C88420ED028E0012804D025D381
:104C200003281DD018D321E03A6891071ED5FA68F1
:104C3000696800F0C9F8386820F0806000F0CCF8AE
:104C400080463868010113D5FDF78EFCA0EB080003
:104C50000328F6D3032637E039684A05E7D405E090
:104C600039688A03E3D439684A03E0D401262BE08B
:104C7000A9682CB93A695C48EB6800F095F80FE038
:104C8000012C3A6909D12B69584802405B0842EA75
:104C900001215B1E41EA435102E06B6900F08BF891
:104CA0003961386840F0806000F096F80446386852
:104CB000010105D4FDF758FC001B0328F7D3C9E711
:104CC0003869A969084338613046BDE8F0810000C1
:104CD0000C1002402DE9F0410646424F30680C4668
:104CE000F968002511F0030F0DD0F96801F00301F8
:104CF000814231D180B3F8687168C0F30210401C62
:104D000088420ED028E0012804D025D303281DD0E6
:104D100018D321E03A6891071ED5FA68716800F04F
:104D200053F8386820F0805000F056F88046386814
:104D3000810013D5FDF718FCA0EB08000328F6D37B
:104D400003252BE039684A05E7D405E039688A0372
:104D5000E3D439684A03E0D401251FE0B1687A69D9
:104D6000002C04D12048F36800F01EF802E03369FB
:104D700000F021F87961386840F0805000F02CF89C
:104D800004463868810005D4FDF7EEFB001B0328BC
:104D9000F7D3D5E778697169084378612846BDE89B
:104DA000F081000000700040024042EA01211B092E
:104DB00041EA434170470E4802405B0842EA012144
:104DC0005B1E41EA4361704722F073021043491EA3
:104DD00040EA0110F86070473860FDF7C5BB00007D
:104DE0009010024000100240FF80FDFFFF809FFFF7
:104DF000FF80FFF9DFF8F40281B0816841F0010122
:104E00008160816801F0010100910099026842F01F
:104E100080520260006800F080500090009801B05D
:104E2000704780B586B000F07DF8DFF8C4221068C6
:104E3000A0B9DFF8C002416941F080714161416968
:104E400001F0807100F066F84FF4207100F06EF808
:104E500004910621059101A9FDF788FF07B000BD67
:104E600010B586B000F05DF82268DFF890128A4233
:104E70001ED1A04C206840F0020020601222216860
:104E800001F0020100914FF4406100989C480191AB
:104E90000292012103910322042100F036F8E06818
:104EA00040F48000E060E06800F48000009000982A
:104EB00006B010BD00689149884209D18B4802684C
:104EC00022F4800202604FF440618D48FEF730B852
:104ED000704710B586B000F024F8226889498A42EC
:104EE00011D18448416841F480714160416801F406
:104EF000807100F00FF84FF47C4100F017F80322A6
:104F00000A2100F002F806B010BD0591049201A933
:104F1000FDF72CBF00910099026842F01002026078
:104F200070470446142101A8FDF71CBF006800F07B
:104F30001000009002220098734801910292002113
:104F40000391704710B586B0FFF7EBFF22686F49F9
:104F50008A421ED16748C16841F40041C160C168FE
:104F600001F4004100910099026842F004020260DD
:104F70004FF4E051006800F0040000900222009815
:104F80006348019102920021039103220621FFF759
:104F9000BCFF06B010BD00685E49884200D0704773
:104FA00080B55548026842F4006202600022006841
:104FB00000F400600090002100981B20FDF740FBEA
:104FC000BDE802401B20FDF758BB10B586B0044673
:104FD00014216846FDF7C6FE20684F4A45499042B5
:104FE00015D1486940F480404861486900F4804028
:104FF000059005980A6842F002020A6002220968D8
:1050000001F002010591C02105983D4818E0434A8E
:10501000904220D1C86840F48020C860C86800F47D
:105020008020059005980A6842F008020A60022272
:10503000096801F0080105914FF44071059838485E
:105040000091019200210291032207210491039211
:105050006946FDF78BFE06B010BD10B586B0FFF7B0
:1050600060FF2268B2F1A04F39D1224C206840F095
:10507000010020600022216801F0010100914FF43D
:105080000071009801910292039200F02AF8022127
:105090000291002203924FF4E05003210190049109
:1050A0000A22059200F01DF8206840F4805020602C
:1050B000216801F4805100910098E168C8000CD487
:1050C000E16841F08051E16000F02CF8FDF786FACC
:1050D000E06820F08050E06001E0FDF77FFA06B064
:1050E00010BD01A94FF09040FDF740BE581002409E
:1050F000D00800204C1002406010024000580040D0
:1051000000040048001000A000100048003C0040CF
:1051100000080048002C01400038014000480040D1
:10512000000C0048E06800F0805000900098704744
:1051300000B500BF130096469446103928BFA0E87A
:105140000C50FAD85FEA417C28BF0CC048BF40F839
:10515000042BC90728BF20F8022B48BF00F8012BF9
:1051600000BD00000EB418B504460898012817D1F8
:10517000A06B20F48030A063E168DFF854020140A6
:10518000E160E16821F44011E1600F98012803D14A
:10519000E06840F48010E060204600F003F90FE082
:1051A000E06840F04000E060204600F0FBF80C9919
:1051B0000029A16B0CBF41F4803121F48031A1633F
:1051C00012BC5DF810FB816849084900816000202D
:1051D000704780B5C26822F0C0420129C26005D183
:1051E000C16841F00051C1603220D7E019B9C168EF
:1051F00041F08041F7E7012002BD0EB42DE9F043F4
:105200000546044600260021002004EB8102491CCB
:105210000F29C2F80401F8D3DDF84490B9F1000F6A
:1052200005F5006710D1786840F002007860A06B47
:1052300020F40010A063216841F040012160206843
:1052400040F08000206003E0A06B40F40010A063F9
:1052500005F5606303211E6038683860204600F061
:105260008DF81021204600F06DF800B1012620468F
:1052700000F077F800B101260020386178612A46F5
:10528000F8614FF67F334FF0904C4FF0006E0025E1
:1052900003E00D600D618B60401C0799884211D2BC
:1052A00002EB401101F51061D1F80080B8F1000F58
:1052B000EFD5002806BF02F51068C8F800E0C1F875
:1052C00000C0E7E7002003E00D600D618B60401C2B
:1052D0000799884211D202EB401101F53061D1F8F3
:1052E0000080B8F1000FEFD5002806BF02F5306846
:1052F000C8F800E0C1F800C0E7E7386920F4807022
:105300003861A5616FF080406061A169DFF8C40079
:1053100041F01001A161A1690143A1610D9818B18B
:10532000A06940F00800A061B9F1010F05D1A069A2
:1053300040F0804040F00400A0613046BDE8F0033A
:105340005DF810FB890141F020010161DFF8881050
:10535000491E04D002699306FAD400207047032046
:10536000704710210161DFF87010491E04D00269F6
:10537000D306FAD4002070470320704700F5006080
:1053800002681143FFE701600020704780B500F517
:105390000060416841F0020141600320FEF798FF80
:1053A000002002BDDFF830201146491E0DD00369F0
:1053B000002BFAD5016941F001010161521E04D0B0
:1053C0000169CB07FAD40020704703207047000022
:1053D000BFFFBDFF00383C80410D0300016800F5B0
:1053E0007D700122002382600370886940F00060B4
:1053F0008861486D40F0805040F00300486500200F
:1054000070477047704770477047704770477047E4
:105410007047704770B5044686B054485449554D9E
:10542000206000220120E0606160A2602261626170
:10543000E26122624FF4406168694F4E40F0020021
:1054400068611222686900F00200009000980191E2
:10545000029201210391032204210591049201A9E2
:105460003046FDF783FC01A93046FDF77FFC286A32
:1054700040F480002862286A00F4800000900098C0
:10548000296841F4800129600F212A6822F48002F2
:105490002A6021200022FDF7D3F82120FDF7EDF846
:1054A00000220F212220FDF7CBF82220FDF7E5F89E
:1054B0002046FDF78BFE00212046FEF74FF906B08F
:1054C00070BD7FB500F011F8FDF787FF04E07FB5F0
:1054D00000F00BF8FDF7FFFE060003D0294620463A
:1054E00000F00FF8304604B070BD04464FF47A70F7
:1054F00002900D460898BDF8246000900196204661
:10550000704710B50446FDF7B1FE2046BDE81040D7
:1055100080E71A487EE707B50A460121019102ABF0
:105520000093014601231548FFF7D1FF07BD1FB5C2
:105530000A4600218DF808100123019302AC0146B0
:1055400000940E48FFF7BDFF9DF8080004B010BDA1
:10555000E0B500F003F8FFF7B4FF0EBD0092019331
:105560000A460146012305487047000000580040E4
:105570008126700038100240000400484C080020CA
:1055800010B5044600F0C9F800F003022243D2B27D
:10559000102154E080B500F0C0F8BDE8084000F0EC
:1055A0000F02102158E080B564E010B504461521C3
:1055B00000F0B4F820F010000CB140F01000BDE88D
:1055C00010400246152147E070B52DED028B0446D0
:1055D00084B000F0A2F80546062302AA2821D420B0
:1055E000FFF7B6FF00F09EF808D0042D0CD0082D70
:1055F00007D00C2D08BF9FED558A07E09FED548A18
:1056000004E09FED548A01E09FED538A002000F0F2
:105610007DF820EE080ABDEEC00A10EE102A24F82C
:105620001020401C0328F2DB6CE010B50446112169
:1056300000F074F800F003022243D2B21121D4200A
:10564000FFF769FF122100F069F800F0BB0040EAA3
:105650001422BDE810401221D420FFF75CBF80B5B2
:10566000112100F05BF8BDE8084000F00F021121A5
:10567000F2E780B5FFF74DFFBDE804400F21D420CD
:10568000FFF755BF10B50446162100F047F820F08B
:1056900080000CB140F08000BDE8104002461621A9
:1056A000DAE7000070B52DED028B044684B01121BD
:1056B00000F034F80546062302AA2221D420FFF781
:1056C00047FF00F02FF808D0042D09D0082D0AD08C
:1056D0000C2D08BF9FED218A07E09FED218A04E091
:1056E0009FED208A01E09FED208A002000F00EF857
:1056F00004EB8003401C20EE080A032883ED000A17
:10570000F4DB00BF04B0BDEC028B70BD3DF910208E
:1057100000EE102AB8EEC00A70471021D420FFF71F
:1057200006BF00009FED118A002002AA02EB400391
:105730005E7812F8103003EB06232DF81030401C71
:105740000328F3DB15F00C057047000023DB793EDE
:1057500023DB793D23DBF93D23DBF93E00008C425E
:1057600000000C4100008C4100000C4200000000D1
:1057700010B578E010B50446FFF7CBFEE0B2BDE807
:1057800010400F21FFF7D3BE2DE9FC41074602234D
:105790006A46B021C0B2FFF7DBFE02236A46B6219B
:1057A000F8B29DF800409DF80150FFF7D1FE0223AA
:1057B0006A46BA219DF801009DF8006046EA00267D
:1057C000F8B2FFF7C5FE9DF801009DF8001041EA10
:1057D000002802236A46A821F8B2FFF7B9FE00F0BC
:1057E000A4F864086D0836B209B2891B2D1B00EEBF
:1057F000101A00EE905AB8EEC00AF8EEE00A0FFA5E
:1058000088F020EE200A861B00EE906AF8EEE00A8F
:1058100080EE200A00EE904AF8EEE00A30EE200A10
:10582000B2EE041A20EE010ADFED0B1AB4EE610AA3
:10583000F1EE10FAA8BF9FED090A0ADAB5EE400AA8
:10584000F1EE10FA4EBF9FED060AF2EE040A80EE6A
:10585000200ABDE8F381000001007A440000C8423C
:105860000000000010B504462021C0B2FFF75FFE23
:1058700000F0FC0040F08502E0B2BDE810402021BD
:10588000FFF749BE2DE9FC42044602236A46B221D5
:10589000C0B2FFF75DFE3521E0B2FFF748FE9DF88C
:1058A00001209DF8007000F00C0142EA81190423E8
:1058B0006A46BC2100F0030047EA0027E0B2FFF788
:1058C00047FE9DF8026002236A46AA219DF8010066
:1058D0009DF8005045EA00259DF8030046EA0026A1
:1058E000E0B2FFF735FE00F020F8FF082DB209B254
:1058F000491BC7EBE90036B200EE101A00EE900A21
:10590000751BB8EEC00AF8EEE00A01EE105A60EE20
:10591000200AB8EEC11AC0EE810A01EE107AB8EE84
:10592000C11A30EE810ABDE8F3829DF801009DF8AE
:10593000001041EA0021704738E010B50446FFF737
:10594000E8FDE0B2BDE810400F21FFF7F0BD000018
:105950007CB505460024002606F12801C9B2E8B24C
:10596000FFF7E5FD0DF80600761C032EF4DB0020A2
:105970001DF80010C20091400C43401C0328F7DBC7
:10598000200248BF44F07F4464204443E11204EB0A
:105990001154241300EE104AB8EEC00ADFED020ADB
:1059A00080EE200A73BD00000000C84210B5044616
:1059B0001A21C0B2FFF7BBFD40F001021A21E0B28C
:1059C000FFF7A9FD1021E0B2FFF7B1FD00F08F0253
:1059D000E0B2BDE8104042F032021021FFF79BBD5B
:1059E000F0B40246106895681318506803EB500431
:1059F000C0071CD54D441AE013F8017B05F8017B64
:105A0000491EF9D198B113F8011BC6F38106032E84
:105A100008BF13F8016B01EB06214942801C2944A1
:105A200005D011F8016B05F8016B401EF9D1A342B6
:105A30000ED013F8016B16F0030104BF13F8011B1D
:105A4000C91C30090F28DBD113F8010B0F30D7E741
:105A5000F0BC02F10C0070477047FEE7FEE7FEE77E
:105A6000FEE770477047704700F02EB880B52020E1
:105A7000FDF7E3FA4020FDF7E0FA8020FDF7DDFABC
:105A8000BDE802404FF48070FDF7D7BA0148FEF739
:105A900013B800001C07002080B54FF48060FDF7AC
:105AA000CCFA4FF40060FDF7C8FA4FF40050FDF750
:105AB000C4FA4FF48040FDF7C0FABDE802404FF44D
:105AC0000040FDF7BABA000002490A6888688218E7
:105AD0000A607047900000200E48016841F4700190
